{
  "address": "0x7969c5eD335650692Bc04293B07F5BF2e7A673C0",
  "abi": [
    {
      "anonymous": false,
      "inputs": [
        {
          "indexed": true,
          "internalType": "address",
          "name": "sender",
          "type": "address"
        },
        {
          "indexed": true,
          "internalType": "address",
          "name": "receiver",
          "type": "address"
        },
        {
          "indexed": false,
          "internalType": "string",
          "name": "message",
          "type": "string"
        }
      ],
      "name": "MessageSent",
      "type": "event"
    },
    {
      "anonymous": false,
      "inputs": [
        {
          "indexed": true,
          "internalType": "address",
          "name": "sender",
          "type": "address"
        },
        {
          "indexed": false,
          "internalType": "string",
          "name": "post",
          "type": "string"
        }
      ],
      "name": "PostSent",
      "type": "event"
    },
    {
      "inputs": [
        {
          "internalType": "address",
          "name": "",
          "type": "address"
        }
      ],
      "name": "messages",
      "outputs": [
        {
          "internalType": "string",
          "name": "",
          "type": "string"
        }
      ],
      "stateMutability": "view",
      "type": "function"
    },
    {
      "inputs": [
        {
          "internalType": "string",
          "name": "_post",
          "type": "string"
        }
      ],
      "name": "postMessage",
      "outputs": [],
      "stateMutability": "nonpayable",
      "type": "function"
    },
    {
      "inputs": [
        {
          "internalType": "address",
          "name": "",
          "type": "address"
        }
      ],
      "name": "posts",
      "outputs": [
        {
          "internalType": "string",
          "name": "",
          "type": "string"
        }
      ],
      "stateMutability": "view",
      "type": "function"
    },
    {
      "inputs": [
        {
          "internalType": "address",
          "name": "_receiver",
          "type": "address"
        },
        {
          "internalType": "string",
          "name": "_message",
          "type": "string"
        }
      ],
      "name": "sendMessage",
      "outputs": [],
      "stateMutability": "nonpayable",
      "type": "function"
    }
  ],
  "transactionHash": "0x882ad12488d88e66636d1ef9233757f7a2d7f6b67564ef7693ca270b79866386",
  "args": [],
  "numDeployments": 1,
  "solcInputHash": "91984bf3d1968d29f29e280c96678b22",
  "bytecode": "0x608060405234801561001057600080fd5b506109c5806100206000396000f3fe608060405234801561001057600080fd5b506004361061004c5760003560e01c806303eaf317146100515780635fdd59f8146100815780636630f88f146100b1578063de6f24bb146100cd575b600080fd5b61006b600480360381019061006691906103ee565b6100e9565b60405161007891906104ab565b60405180910390f35b61009b600480360381019061009691906103ee565b610189565b6040516100a891906104ab565b60405180910390f35b6100cb60048036038101906100c69190610602565b610229565b005b6100e760048036038101906100e2919061064b565b6102c7565b005b60016020528060005260406000206000915090508054610108906106d6565b80601f0160208091040260200160405190810160405280929190818152602001828054610134906106d6565b80156101815780601f1061015657610100808354040283529160200191610181565b820191906000526020600020905b81548152906001019060200180831161016457829003601f168201915b505050505081565b600060205280600052604060002060009150905080546101a8906106d6565b80601f01602080910402602001604051908101604052809291908181526020018280546101d4906106d6565b80156102215780601f106101f657610100808354040283529160200191610221565b820191906000526020600020905b81548152906001019060200180831161020457829003601f168201915b505050505081565b80600160003373ffffffffffffffffffffffffffffffffffffffff1673ffffffffffffffffffffffffffffffffffffffff168152602001908152602001600020908161027591906108bd565b503373ffffffffffffffffffffffffffffffffffffffff167f72bf37ddefba64fcefdf819cfca6af5d9e9252c6981235356bece86f656c7116826040516102bc91906104ab565b60405180910390a250565b806000808473ffffffffffffffffffffffffffffffffffffffff1673ffffffffffffffffffffffffffffffffffffffff168152602001908152602001600020908161031291906108bd565b508173ffffffffffffffffffffffffffffffffffffffff163373ffffffffffffffffffffffffffffffffffffffff167fe2cf7446a11cbcd14cd99ea3a1bb77fb7653a64f4064d660140b5100d001e13c8360405161037091906104ab565b60405180910390a35050565b6000604051905090565b600080fd5b600080fd5b600073ffffffffffffffffffffffffffffffffffffffff82169050919050565b60006103bb82610390565b9050919050565b6103cb816103b0565b81146103d657600080fd5b50565b6000813590506103e8816103c2565b92915050565b60006020828403121561040457610403610386565b5b6000610412848285016103d9565b91505092915050565b600081519050919050565b600082825260208201905092915050565b60005b8381101561045557808201518184015260208101905061043a565b60008484015250505050565b6000601f19601f8301169050919050565b600061047d8261041b565b6104878185610426565b9350610497818560208601610437565b6104a081610461565b840191505092915050565b600060208201905081810360008301526104c58184610472565b905092915050565b600080fd5b600080fd5b7f4e487b7100000000000000000000000000000000000000000000000000000000600052604160045260246000fd5b61050f82610461565b810181811067ffffffffffffffff8211171561052e5761052d6104d7565b5b80604052505050565b600061054161037c565b905061054d8282610506565b919050565b600067ffffffffffffffff82111561056d5761056c6104d7565b5b61057682610461565b9050602081019050919050565b82818337600083830152505050565b60006105a56105a084610552565b610537565b9050828152602081018484840111156105c1576105c06104d2565b5b6105cc848285610583565b509392505050565b600082601f8301126105e9576105e86104cd565b5b81356105f9848260208601610592565b91505092915050565b60006020828403121561061857610617610386565b5b600082013567ffffffffffffffff8111156106365761063561038b565b5b610642848285016105d4565b91505092915050565b6000806040838503121561066257610661610386565b5b6000610670858286016103d9565b925050602083013567ffffffffffffffff8111156106915761069061038b565b5b61069d858286016105d4565b9150509250929050565b7f4e487b7100000000000000000000000000000000000000000000000000000000600052602260045260246000fd5b600060028204905060018216806106ee57607f821691505b602082108103610701576107006106a7565b5b50919050565b60008190508160005260206000209050919050565b60006020601f8301049050919050565b600082821b905092915050565b6000600883026107697fffffffffffffffffffffffffffffffffffffffffffffffffffffffffffffffff8261072c565b610773868361072c565b95508019841693508086168417925050509392505050565b6000819050919050565b6000819050919050565b60006107ba6107b56107b08461078b565b610795565b61078b565b9050919050565b6000819050919050565b6107d48361079f565b6107e86107e0826107c1565b848454610739565b825550505050565b600090565b6107fd6107f0565b6108088184846107cb565b505050565b5b8181101561082c576108216000826107f5565b60018101905061080e565b5050565b601f8211156108715761084281610707565b61084b8461071c565b8101602085101561085a578190505b61086e6108668561071c565b83018261080d565b50505b505050565b600082821c905092915050565b600061089460001984600802610876565b1980831691505092915050565b60006108ad8383610883565b9150826002028217905092915050565b6108c68261041b565b67ffffffffffffffff8111156108df576108de6104d7565b5b6108e982546106d6565b6108f4828285610830565b600060209050601f8311600181146109275760008415610915578287015190505b61091f85826108a1565b865550610987565b601f19841661093586610707565b60005b8281101561095d57848901518255600182019150602085019450602081019050610938565b8683101561097a5784890151610976601f891682610883565b8355505b6001600288020188555050505b50505050505056fea26469706673582212200be97915eb1e2cb9a34f434093006735f90f125df8078921f1d40af7d86e99db64736f6c63430008110033",
  "devdoc": {
    "author": "OxSnosh",
    "details": "this contract inherits from openzeppelin's ownable contract",
    "kind": "dev",
    "methods": {
      "postMessage(string)": {
        "details": "this function will allow a user to post a message",
        "params": {
          "_post": "is the message being posted"
        }
      },
      "sendMessage(address,string)": {
        "details": "this function will allow a user to send a message to another user",
        "params": {
          "_message": "is the message being sent",
          "_receiver": "is the address of the user receiving the message"
        }
      }
    },
    "title": "Messenger",
    "version": 1
  },
  "userdoc": {
    "kind": "user",
    "methods": {},
    "notice": "this contract will allow a user to send a message to another user or post updated",
    "version": 1
  },
  "storageLayout": {
    "storage": [
      {
        "astId": 39324,
        "contract": "contracts/Messenger.sol:Messenger",
        "label": "messages",
        "offset": 0,
        "slot": "0",
        "type": "t_mapping(t_address,t_string_storage)"
      },
      {
        "astId": 39358,
        "contract": "contracts/Messenger.sol:Messenger",
        "label": "posts",
        "offset": 0,
        "slot": "1",
        "type": "t_mapping(t_address,t_string_storage)"
      }
    ],
    "types": {
      "t_address": {
        "encoding": "inplace",
        "label": "address",
        "numberOfBytes": "20"
      },
      "t_mapping(t_address,t_string_storage)": {
        "encoding": "mapping",
        "key": "t_address",
        "label": "mapping(address => string)",
        "numberOfBytes": "32",
        "value": "t_string_storage"
      },
      "t_string_storage": {
        "encoding": "bytes",
        "label": "string",
        "numberOfBytes": "32"
      }
    }
  }
}